{
  "contractName": "Adddoc",
  "abi": [
    {
      "constant": false,
      "inputs": [
        {
          "internalType": "uint256",
          "name": "_memeHash",
          "type": "uint256"
        }
      ],
      "name": "setStu",
      "outputs": [],
      "payable": false,
      "stateMutability": "nonpayable",
      "type": "function"
    },
    {
      "constant": true,
      "inputs": [],
      "name": "getStu",
      "outputs": [
        {
          "internalType": "uint256",
          "name": "",
          "type": "uint256"
        }
      ],
      "payable": false,
      "stateMutability": "view",
      "type": "function"
    },
    {
      "constant": false,
      "inputs": [
        {
          "internalType": "uint256",
          "name": "_memeHash",
          "type": "uint256"
        }
      ],
      "name": "setAdmin",
      "outputs": [],
      "payable": false,
      "stateMutability": "nonpayable",
      "type": "function"
    },
    {
      "constant": true,
      "inputs": [],
      "name": "getAdmin",
      "outputs": [
        {
          "internalType": "uint256",
          "name": "",
          "type": "uint256"
        }
      ],
      "payable": false,
      "stateMutability": "view",
      "type": "function"
    },
    {
      "constant": false,
      "inputs": [
        {
          "internalType": "address",
          "name": "UserAddress",
          "type": "address"
        },
        {
          "internalType": "string",
          "name": "_stuname",
          "type": "string"
        },
        {
          "internalType": "string",
          "name": "_appliedfor",
          "type": "string"
        },
        {
          "internalType": "uint256",
          "name": "_var0",
          "type": "uint256"
        },
        {
          "internalType": "uint256",
          "name": "_var1",
          "type": "uint256"
        },
        {
          "internalType": "uint256",
          "name": "_var2",
          "type": "uint256"
        },
        {
          "internalType": "uint256",
          "name": "_var3",
          "type": "uint256"
        },
        {
          "internalType": "uint256",
          "name": "_var4",
          "type": "uint256"
        }
      ],
      "name": "setTick",
      "outputs": [],
      "payable": false,
      "stateMutability": "nonpayable",
      "type": "function"
    },
    {
      "constant": true,
      "inputs": [
        {
          "internalType": "address",
          "name": "UserAddress",
          "type": "address"
        },
        {
          "internalType": "uint256",
          "name": "index",
          "type": "uint256"
        }
      ],
      "name": "getTick",
      "outputs": [
        {
          "internalType": "string",
          "name": "",
          "type": "string"
        },
        {
          "internalType": "string",
          "name": "",
          "type": "string"
        },
        {
          "internalType": "uint256",
          "name": "",
          "type": "uint256"
        },
        {
          "internalType": "uint256",
          "name": "",
          "type": "uint256"
        },
        {
          "internalType": "uint256",
          "name": "",
          "type": "uint256"
        },
        {
          "internalType": "uint256",
          "name": "",
          "type": "uint256"
        },
        {
          "internalType": "uint256",
          "name": "",
          "type": "uint256"
        }
      ],
      "payable": false,
      "stateMutability": "view",
      "type": "function"
    },
    {
      "constant": false,
      "inputs": [
        {
          "internalType": "address",
          "name": "UserAddress",
          "type": "address"
        },
        {
          "internalType": "string",
          "name": "_docname",
          "type": "string"
        },
        {
          "internalType": "string",
          "name": "_date",
          "type": "string"
        },
        {
          "internalType": "string",
          "name": "_dochash",
          "type": "string"
        }
      ],
      "name": "setstudoc",
      "outputs": [],
      "payable": false,
      "stateMutability": "nonpayable",
      "type": "function"
    },
    {
      "constant": true,
      "inputs": [
        {
          "internalType": "address",
          "name": "UserAddress",
          "type": "address"
        },
        {
          "internalType": "uint256",
          "name": "UserIndex",
          "type": "uint256"
        }
      ],
      "name": "getstudoc",
      "outputs": [
        {
          "internalType": "string",
          "name": "",
          "type": "string"
        },
        {
          "internalType": "string",
          "name": "",
          "type": "string"
        },
        {
          "internalType": "string",
          "name": "",
          "type": "string"
        }
      ],
      "payable": false,
      "stateMutability": "view",
      "type": "function"
    },
    {
      "constant": false,
      "inputs": [
        {
          "internalType": "address",
          "name": "UserAddress",
          "type": "address"
        },
        {
          "internalType": "string",
          "name": "FullName",
          "type": "string"
        },
        {
          "internalType": "string",
          "name": "EmailID",
          "type": "string"
        },
        {
          "internalType": "string",
          "name": "MobileNo",
          "type": "string"
        },
        {
          "internalType": "string",
          "name": "Password",
          "type": "string"
        }
      ],
      "name": "AddUser",
      "outputs": [],
      "payable": false,
      "stateMutability": "nonpayable",
      "type": "function"
    },
    {
      "constant": true,
      "inputs": [
        {
          "internalType": "address",
          "name": "ins",
          "type": "address"
        },
        {
          "internalType": "uint256",
          "name": "UserIndex",
          "type": "uint256"
        }
      ],
      "name": "getUser",
      "outputs": [
        {
          "internalType": "string",
          "name": "",
          "type": "string"
        },
        {
          "internalType": "string",
          "name": "",
          "type": "string"
        },
        {
          "internalType": "string",
          "name": "",
          "type": "string"
        },
        {
          "internalType": "string",
          "name": "",
          "type": "string"
        }
      ],
      "payable": false,
      "stateMutability": "view",
      "type": "function"
    },
    {
      "constant": false,
      "inputs": [
        {
          "internalType": "address",
          "name": "UserAddress",
          "type": "address"
        },
        {
          "internalType": "string",
          "name": "_bonafide",
          "type": "string"
        }
      ],
      "name": "AddBonafidecertificate",
      "outputs": [],
      "payable": false,
      "stateMutability": "nonpayable",
      "type": "function"
    },
    {
      "constant": false,
      "inputs": [
        {
          "internalType": "address",
          "name": "UserAddress",
          "type": "address"
        },
        {
          "internalType": "string",
          "name": "_scholor",
          "type": "string"
        }
      ],
      "name": "AddScholorcertificate",
      "outputs": [],
      "payable": false,
      "stateMutability": "nonpayable",
      "type": "function"
    },
    {
      "constant": false,
      "inputs": [
        {
          "internalType": "address",
          "name": "UserAddress",
          "type": "address"
        },
        {
          "internalType": "string",
          "name": "_academics",
          "type": "string"
        }
      ],
      "name": "AddAcademicscertificate",
      "outputs": [],
      "payable": false,
      "stateMutability": "nonpayable",
      "type": "function"
    },
    {
      "constant": true,
      "inputs": [
        {
          "internalType": "address",
          "name": "UserAddress",
          "type": "address"
        },
        {
          "internalType": "uint256",
          "name": "RequestIndex",
          "type": "uint256"
        }
      ],
      "name": "viewDoc",
      "outputs": [
        {
          "internalType": "uint256",
          "name": "",
          "type": "uint256"
        },
        {
          "internalType": "string",
          "name": "",
          "type": "string"
        },
        {
          "internalType": "uint256",
          "name": "",
          "type": "uint256"
        },
        {
          "internalType": "string",
          "name": "",
          "type": "string"
        },
        {
          "internalType": "uint256",
          "name": "",
          "type": "uint256"
        },
        {
          "internalType": "string",
          "name": "",
          "type": "string"
        }
      ],
      "payable": false,
      "stateMutability": "view",
      "type": "function"
    },
    {
      "constant": true,
      "inputs": [
        {
          "internalType": "address",
          "name": "UserAddress",
          "type": "address"
        }
      ],
      "name": "viewDocLength",
      "outputs": [
        {
          "internalType": "uint256",
          "name": "",
          "type": "uint256"
        },
        {
          "internalType": "uint256",
          "name": "",
          "type": "uint256"
        }
      ],
      "payable": false,
      "stateMutability": "view",
      "type": "function"
    },
    {
      "constant": false,
      "inputs": [
        {
          "internalType": "address",
          "name": "UserAddress",
          "type": "address"
        },
        {
          "internalType": "string",
          "name": "stuname",
          "type": "string"
        },
        {
          "internalType": "uint256",
          "name": "bonafide",
          "type": "uint256"
        },
        {
          "internalType": "uint256",
          "name": "scholor",
          "type": "uint256"
        },
        {
          "internalType": "uint256",
          "name": "academics",
          "type": "uint256"
        },
        {
          "internalType": "uint256",
          "name": "status",
          "type": "uint256"
        }
      ],
      "name": "AddRequest",
      "outputs": [],
      "payable": false,
      "stateMutability": "nonpayable",
      "type": "function"
    },
    {
      "constant": true,
      "inputs": [
        {
          "internalType": "address",
          "name": "UserAddress",
          "type": "address"
        }
      ],
      "name": "ViewRequestLength",
      "outputs": [
        {
          "internalType": "uint256",
          "name": "",
          "type": "uint256"
        }
      ],
      "payable": false,
      "stateMutability": "view",
      "type": "function"
    },
    {
      "constant": true,
      "inputs": [
        {
          "internalType": "address",
          "name": "UserAddress",
          "type": "address"
        },
        {
          "internalType": "uint256",
          "name": "RequestIndex",
          "type": "uint256"
        }
      ],
      "name": "ViewRequestHeader",
      "outputs": [
        {
          "internalType": "string",
          "name": "stuname",
          "type": "string"
        },
        {
          "internalType": "uint256",
          "name": "status",
          "type": "uint256"
        }
      ],
      "payable": false,
      "stateMutability": "view",
      "type": "function"
    },
    {
      "constant": true,
      "inputs": [
        {
          "internalType": "address",
          "name": "UserAddress",
          "type": "address"
        },
        {
          "internalType": "uint256",
          "name": "RequestIndex",
          "type": "uint256"
        }
      ],
      "name": "ViewRequestDetail",
      "outputs": [
        {
          "internalType": "string",
          "name": "stuname",
          "type": "string"
        },
        {
          "internalType": "uint256",
          "name": "bonafide",
          "type": "uint256"
        },
        {
          "internalType": "uint256",
          "name": "scholor",
          "type": "uint256"
        },
        {
          "internalType": "uint256",
          "name": "academics",
          "type": "uint256"
        },
        {
          "internalType": "uint256",
          "name": "status",
          "type": "uint256"
        }
      ],
      "payable": false,
      "stateMutability": "view",
      "type": "function"
    },
    {
      "constant": false,
      "inputs": [
        {
          "internalType": "address",
          "name": "UserAddress",
          "type": "address"
        },
        {
          "internalType": "uint256",
          "name": "RequestIndex",
          "type": "uint256"
        },
        {
          "internalType": "uint256",
          "name": "bonafide",
          "type": "uint256"
        },
        {
          "internalType": "uint256",
          "name": "scholor",
          "type": "uint256"
        },
        {
          "internalType": "uint256",
          "name": "academics",
          "type": "uint256"
        },
        {
          "internalType": "uint256",
          "name": "status",
          "type": "uint256"
        }
      ],
      "name": "UpdateRequestStatus",
      "outputs": [],
      "payable": false,
      "stateMutability": "nonpayable",
      "type": "function"
    }
  ],
  "bytecode": "0x608060405234801561001057600080fd5b50612e8b806100206000396000f3fe608060405234801561001057600080fd5b506004361061012c5760003560e01c8063772b89f6116100ad578063c511bbdf11610071578063c511bbdf146110da578063e183d77b1461128e578063ee3d52b3146112e6578063f766061014611314578063ff2bf64f146113325761012c565b8063772b89f614610b165780637c9869a114610b8c5780638e97dd8214610c67578063b41a340e14610f07578063b4b3b1c7146110ac5761012c565b80634e94895a116100f45780634e94895a146106a0578063537931fe1461083f578063593138641461091a5780636e9960c3146109f55780636ed5268614610a135761012c565b8063043bf5e21461013157806307c29422146102145780630fcaafc01461041d57806325df45101461057357806326ed973414610641575b600080fd5b61017d6004803603604081101561014757600080fd5b81019080803573ffffffffffffffffffffffffffffffffffffffff1690602001909291908035906020019092919050505061153d565b6040518080602001868152602001858152602001848152602001838152602001828103825287818151815260200191508051906020019080838360005b838110156101d55780820151818401526020810190506101ba565b50505050905090810190601f1680156102025780820380516001836020036101000a031916815260200191505b50965050505050505060405180910390f35b61041b6004803603608081101561022a57600080fd5b81019080803573ffffffffffffffffffffffffffffffffffffffff1690602001909291908035906020019064010000000081111561026757600080fd5b82018360208201111561027957600080fd5b8035906020019184600183028401116401000000008311171561029b57600080fd5b91908080601f016020809104026020016040519081016040528093929190818152602001838380828437600081840152601f19601f820116905080830192505050505050509192919290803590602001906401000000008111156102fe57600080fd5b82018360208201111561031057600080fd5b8035906020019184600183028401116401000000008311171561033257600080fd5b91908080601f016020809104026020016040519081016040528093929190818152602001838380828437600081840152601f19601f8201169050808301925050505050505091929192908035906020019064010000000081111561039557600080fd5b8201836020820111156103a757600080fd5b803590602001918460018302840111640100000000831117156103c957600080fd5b91908080601f016020809104026020016040519081016040528093929190818152602001838380828437600081840152601f19601f8201169050808301925050505050505091929192905050506116ad565b005b6104696004803603604081101561043357600080fd5b81019080803573ffffffffffffffffffffffffffffffffffffffff16906020019092919080359060200190929190505050611792565b60405180806020018060200188815260200187815260200186815260200185815260200184815260200183810383528a818151815260200191508051906020019080838360005b838110156104cb5780820151818401526020810190506104b0565b50505050905090810190601f1680156104f85780820380516001836020036101000a031916815260200191505b50838103825289818151815260200191508051906020019080838360005b83811015610531578082015181840152602081019050610516565b50505050905090810190601f16801561055e5780820380516001836020036101000a031916815260200191505b50995050505050505050505060405180910390f35b6105bf6004803603604081101561058957600080fd5b81019080803573ffffffffffffffffffffffffffffffffffffffff169060200190929190803590602001909291905050506119c4565b6040518080602001838152602001828103825284818151815260200191508051906020019080838360005b838110156106055780820151818401526020810190506105ea565b50505050905090810190601f1680156106325780820380516001836020036101000a031916815260200191505b50935050505060405180910390f35b6106836004803603602081101561065757600080fd5b81019080803573ffffffffffffffffffffffffffffffffffffffff169060200190929190505050611b18565b604051808381526020018281526020019250505060405180910390f35b6106ec600480360360408110156106b657600080fd5b81019080803573ffffffffffffffffffffffffffffffffffffffff16906020019092919080359060200190929190505050611baa565b60405180806020018060200180602001848103845287818151815260200191508051906020019080838360005b83811015610734578082015181840152602081019050610719565b50505050905090810190601f1680156107615780820380516001836020036101000a031916815260200191505b50848103835286818151815260200191508051906020019080838360005b8381101561079a57808201518184015260208101905061077f565b50505050905090810190601f1680156107c75780820380516001836020036101000a031916815260200191505b50848103825285818151815260200191508051906020019080838360005b838110156108005780820151818401526020810190506107e5565b50505050905090810190601f16801561082d5780820380516001836020036101000a031916815260200191505b50965050505050505060405180910390f35b6109186004803603604081101561085557600080fd5b81019080803573ffffffffffffffffffffffffffffffffffffffff1690602001909291908035906020019064010000000081111561089257600080fd5b8201836020820111156108a457600080fd5b803590602001918460018302840111640100000000831117156108c657600080fd5b91908080601f016020809104026020016040519081016040528093929190818152602001838380828437600081840152601f19601f820116905080830192505050505050509192919290505050611e28565b005b6109f36004803603604081101561093057600080fd5b81019080803573ffffffffffffffffffffffffffffffffffffffff1690602001909291908035906020019064010000000081111561096d57600080fd5b82018360208201111561097f57600080fd5b803590602001918460018302840111640100000000831117156109a157600080fd5b91908080601f016020809104026020016040519081016040528093929190818152602001838380828437600081840152601f19601f820116905080830192505050505050509192919290505050611ec1565b005b6109fd611f5a565b6040518082815260200191505060405180910390f35b610b14600480360360c0811015610a2957600080fd5b81019080803573ffffffffffffffffffffffffffffffffffffffff16906020019092919080359060200190640100000000811115610a6657600080fd5b820183602082011115610a7857600080fd5b80359060200191846001830284011164010000000083111715610a9a57600080fd5b91908080601f016020809104026020016040519081016040528093929190818152602001838380828437600081840152601f19601f82011690508083019250505050505050919291929080359060200190929190803590602001909291908035906020019092919080359060200190929190505050611f64565b005b610b8a600480360360c0811015610b2c57600080fd5b81019080803573ffffffffffffffffffffffffffffffffffffffff1690602001909291908035906020019092919080359060200190929190803590602001909291908035906020019092919080359060200190929190505050612045565b005b610c6560048036036040811015610ba257600080fd5b81019080803573ffffffffffffffffffffffffffffffffffffffff16906020019092919080359060200190640100000000811115610bdf57600080fd5b820183602082011115610bf157600080fd5b80359060200191846001830284011164010000000083111715610c1357600080fd5b91908080601f016020809104026020016040519081016040528093929190818152602001838380828437600081840152601f19601f8201169050808301925050505050505091929192905050506121cd565b005b610f05600480360360a0811015610c7d57600080fd5b81019080803573ffffffffffffffffffffffffffffffffffffffff16906020019092919080359060200190640100000000811115610cba57600080fd5b820183602082011115610ccc57600080fd5b80359060200191846001830284011164010000000083111715610cee57600080fd5b91908080601f016020809104026020016040519081016040528093929190818152602001838380828437600081840152601f19601f82011690508083019250505050505050919291929080359060200190640100000000811115610d5157600080fd5b820183602082011115610d6357600080fd5b80359060200191846001830284011164010000000083111715610d8557600080fd5b91908080601f016020809104026020016040519081016040528093929190818152602001838380828437600081840152601f19601f82011690508083019250505050505050919291929080359060200190640100000000811115610de857600080fd5b820183602082011115610dfa57600080fd5b80359060200191846001830284011164010000000083111715610e1c57600080fd5b91908080601f016020809104026020016040519081016040528093929190818152602001838380828437600081840152601f19601f82011690508083019250505050505050919291929080359060200190640100000000811115610e7f57600080fd5b820183602082011115610e9157600080fd5b80359060200191846001830284011164010000000083111715610eb357600080fd5b91908080601f016020809104026020016040519081016040528093929190818152602001838380828437600081840152601f19601f820116905080830192505050505050509192919290505050612266565b005b6110aa6004803603610100811015610f1e57600080fd5b81019080803573ffffffffffffffffffffffffffffffffffffffff16906020019092919080359060200190640100000000811115610f5b57600080fd5b820183602082011115610f6d57600080fd5b80359060200191846001830284011164010000000083111715610f8f57600080fd5b91908080601f016020809104026020016040519081016040528093929190818152602001838380828437600081840152601f19601f82011690508083019250505050505050919291929080359060200190640100000000811115610ff257600080fd5b82018360208201111561100457600080fd5b8035906020019184600183028401116401000000008311171561102657600080fd5b91908080601f016020809104026020016040519081016040528093929190818152602001838380828437600081840152601f19601f820116905080830192505050505050509192919290803590602001909291908035906020019092919080359060200190929190803590602001909291908035906020019092919050505061236f565b005b6110d8600480360360208110156110c257600080fd5b8101908080359060200190929190505050612485565b005b611126600480360360408110156110f057600080fd5b81019080803573ffffffffffffffffffffffffffffffffffffffff1690602001909291908035906020019092919050505061248f565b60405180878152602001806020018681526020018060200185815260200180602001848103845289818151815260200191508051906020019080838360005b83811015611180578082015181840152602081019050611165565b50505050905090810190601f1680156111ad5780820380516001836020036101000a031916815260200191505b50848103835287818151815260200191508051906020019080838360005b838110156111e65780820151818401526020810190506111cb565b50505050905090810190601f1680156112135780820380516001836020036101000a031916815260200191505b50848103825285818151815260200191508051906020019080838360005b8381101561124c578082015181840152602081019050611231565b50505050905090810190601f1680156112795780820380516001836020036101000a031916815260200191505b50995050505050505050505060405180910390f35b6112d0600480360360208110156112a457600080fd5b81019080803573ffffffffffffffffffffffffffffffffffffffff169060200190929190505050612937565b6040518082815260200191505060405180910390f35b611312600480360360208110156112fc57600080fd5b8101908080359060200190929190505050612983565b005b61131c61298d565b6040518082815260200191505060405180910390f35b61137e6004803603604081101561134857600080fd5b81019080803573ffffffffffffffffffffffffffffffffffffffff16906020019092919080359060200190929190505050612996565b6040518080602001806020018060200180602001858103855289818151815260200191508051906020019080838360005b838110156113ca5780820151818401526020810190506113af565b50505050905090810190601f1680156113f75780820380516001836020036101000a031916815260200191505b50858103845288818151815260200191508051906020019080838360005b83811015611430578082015181840152602081019050611415565b50505050905090810190601f16801561145d5780820380516001836020036101000a031916815260200191505b50858103835287818151815260200191508051906020019080838360005b8381101561149657808201518184015260208101905061147b565b50505050905090810190601f1680156114c35780820380516001836020036101000a031916815260200191505b50858103825286818151815260200191508051906020019080838360005b838110156114fc5780820151818401526020810190506114e1565b50505050905090810190601f1680156115295780820380516001836020036101000a031916815260200191505b509850505050505050505060405180910390f35b606060008060008061154d612cc3565b600460008973ffffffffffffffffffffffffffffffffffffffff1673ffffffffffffffffffffffffffffffffffffffff168152602001908152602001600020878154811061159757fe5b90600052602060002090600502016040518060a0016040529081600082018054600181600116156101000203166002900480601f0160208091040260200160405190810160405280929190818152602001828054600181600116156101000203166002900480156116495780601f1061161e57610100808354040283529160200191611649565b820191906000526020600020905b81548152906001019060200180831161162c57829003601f168201915b5050505050815260200160018201548152602001600282015481526020016003820154815260200160048201548152505090508060000151816020015182604001518360600151846080015184945095509550955095509550509295509295909350565b600260008573ffffffffffffffffffffffffffffffffffffffff1673ffffffffffffffffffffffffffffffffffffffff16815260200190815260200160002060405180606001604052808581526020018481526020018381525090806001815401808255809150509060018203906000526020600020906003020160009091929091909150600082015181600001908051906020019061174e929190612cf2565b50602082015181600101908051906020019061176b929190612cf2565b506040820151816002019080519060200190611788929190612cf2565b5050505050505050565b60608060008060008060006117a5612d72565b600560008b73ffffffffffffffffffffffffffffffffffffffff1673ffffffffffffffffffffffffffffffffffffffff16815260200190815260200160002089815481106117ef57fe5b90600052602060002090600702016040518060e0016040529081600082018054600181600116156101000203166002900480601f0160208091040260200160405190810160405280929190818152602001828054600181600116156101000203166002900480156118a15780601f10611876576101008083540402835291602001916118a1565b820191906000526020600020905b81548152906001019060200180831161188457829003601f168201915b50505050508152602001600182018054600181600116156101000203166002900480601f0160208091040260200160405190810160405280929190818152602001828054600181600116156101000203166002900480156119435780601f1061191857610100808354040283529160200191611943565b820191906000526020600020905b81548152906001019060200180831161192657829003601f168201915b50505050508152602001600282015481526020016003820154815260200160048201548152602001600582015481526020016006820154815250509050806000015181602001518260400151836060015184608001518560a001518660c0015186965085955097509750975097509750975097505092959891949750929550565b606060006119d0612cc3565b600460008673ffffffffffffffffffffffffffffffffffffffff1673ffffffffffffffffffffffffffffffffffffffff1681526020019081526020016000208481548110611a1a57fe5b90600052602060002090600502016040518060a0016040529081600082018054600181600116156101000203166002900480601f016020809104026020016040519081016040528092919081815260200182805460018160011615610100020316600290048015611acc5780601f10611aa157610100808354040283529160200191611acc565b820191906000526020600020905b815481529060010190602001808311611aaf57829003601f168201915b5050505050815260200160018201548152602001600282015481526020016003820154815260200160048201548152505090508060000151816080015181915092509250509250929050565b600080600260008473ffffffffffffffffffffffffffffffffffffffff1673ffffffffffffffffffffffffffffffffffffffff16815260200190815260200160002080549050600560008573ffffffffffffffffffffffffffffffffffffffff1673ffffffffffffffffffffffffffffffffffffffff1681526020019081526020016000208054905091509150915091565b6060806060611bb7612daf565b600260008773ffffffffffffffffffffffffffffffffffffffff1673ffffffffffffffffffffffffffffffffffffffff1681526020019081526020016000208581548110611c0157fe5b9060005260206000209060030201604051806060016040529081600082018054600181600116156101000203166002900480601f016020809104026020016040519081016040528092919081815260200182805460018160011615610100020316600290048015611cb35780601f10611c8857610100808354040283529160200191611cb3565b820191906000526020600020905b815481529060010190602001808311611c9657829003601f168201915b50505050508152602001600182018054600181600116156101000203166002900480601f016020809104026020016040519081016040528092919081815260200182805460018160011615610100020316600290048015611d555780601f10611d2a57610100808354040283529160200191611d55565b820191906000526020600020905b815481529060010190602001808311611d3857829003601f168201915b50505050508152602001600282018054600181600116156101000203166002900480601f016020809104026020016040519081016040528092919081815260200182805460018160011615610100020316600290048015611df75780601f10611dcc57610100808354040283529160200191611df7565b820191906000526020600020905b815481529060010190602001808311611dda57829003601f168201915b5050505050815250509050806000015181602001518260400151829250819150809050935093509350509250925092565b600860008373ffffffffffffffffffffffffffffffffffffffff1673ffffffffffffffffffffffffffffffffffffffff1681526020019081526020016000206040518060200160405280838152509080600181540180825580915050906001820390600052602060002001600090919290919091506000820151816000019080519060200190611eb9929190612cf2565b505050505050565b600760008373ffffffffffffffffffffffffffffffffffffffff1673ffffffffffffffffffffffffffffffffffffffff1681526020019081526020016000206040518060200160405280838152509080600181540180825580915050906001820390600052602060002001600090919290919091506000820151816000019080519060200190611f52929190612cf2565b505050505050565b6000600154905090565b600460008773ffffffffffffffffffffffffffffffffffffffff1673ffffffffffffffffffffffffffffffffffffffff1681526020019081526020016000206040518060a0016040528087815260200186815260200185815260200184815260200183815250908060018154018082558091505090600182039060005260206000209060050201600090919290919091506000820151816000019080519060200190612011929190612cf2565b5060208201518160010155604082015181600201556060820151816003015560808201518160040155505050505050505050565b83600460008873ffffffffffffffffffffffffffffffffffffffff1673ffffffffffffffffffffffffffffffffffffffff168152602001908152602001600020868154811061209057fe5b90600052602060002090600502016001018190555082600460008873ffffffffffffffffffffffffffffffffffffffff1673ffffffffffffffffffffffffffffffffffffffff16815260200190815260200160002086815481106120f057fe5b90600052602060002090600502016002018190555081600460008873ffffffffffffffffffffffffffffffffffffffff1673ffffffffffffffffffffffffffffffffffffffff168152602001908152602001600020868154811061215057fe5b90600052602060002090600502016003018190555080600460008873ffffffffffffffffffffffffffffffffffffffff1673ffffffffffffffffffffffffffffffffffffffff16815260200190815260200160002086815481106121b057fe5b906000526020600020906005020160040181905550505050505050565b600660008373ffffffffffffffffffffffffffffffffffffffff1673ffffffffffffffffffffffffffffffffffffffff168152602001908152602001600020604051806020016040528083815250908060018154018082558091505090600182039060005260206000200160009091929091909150600082015181600001908051906020019061225e929190612cf2565b505050505050565b600360008673ffffffffffffffffffffffffffffffffffffffff1673ffffffffffffffffffffffffffffffffffffffff16815260200190815260200160002060405180608001604052808681526020018581526020018481526020018381525090806001815401808255809150509060018203906000526020600020906004020160009091929091909150600082015181600001908051906020019061230d929190612cf2565b50602082015181600101908051906020019061232a929190612cf2565b506040820151816002019080519060200190612347929190612cf2565b506060820151816003019080519060200190612364929190612cf2565b505050505050505050565b600560008973ffffffffffffffffffffffffffffffffffffffff1673ffffffffffffffffffffffffffffffffffffffff1681526020019081526020016000206040518060e0016040528089815260200188815260200187815260200186815260200185815260200184815260200183815250908060018154018082558091505090600182039060005260206000209060070201600090919290919091506000820151816000019080519060200190612428929190612cf2565b506020820151816001019080519060200190612445929190612cf2565b5060408201518160020155606082015181600301556080820151816004015560a0820151816005015560c082015181600601555050505050505050505050565b8060008190555050565b6000606060006060600060606124a3612dd0565b600660008a73ffffffffffffffffffffffffffffffffffffffff1673ffffffffffffffffffffffffffffffffffffffff1681526020019081526020016000206000815481106124ee57fe5b90600052602060002001604051806020016040529081600082018054600181600116156101000203166002900480601f01602080910402602001604051908101604052809291908181526020018280546001816001161561010002031660029004801561259c5780601f106125715761010080835404028352916020019161259c565b820191906000526020600020905b81548152906001019060200180831161257f57829003601f168201915b50505050508152505090506125af612de3565b600760008b73ffffffffffffffffffffffffffffffffffffffff1673ffffffffffffffffffffffffffffffffffffffff1681526020019081526020016000206000815481106125fa57fe5b90600052602060002001604051806020016040529081600082018054600181600116156101000203166002900480601f0160208091040260200160405190810160405280929190818152602001828054600181600116156101000203166002900480156126a85780601f1061267d576101008083540402835291602001916126a8565b820191906000526020600020905b81548152906001019060200180831161268b57829003601f168201915b50505050508152505090506126bb612df6565b600860008c73ffffffffffffffffffffffffffffffffffffffff1673ffffffffffffffffffffffffffffffffffffffff16815260200190815260200160002060008154811061270657fe5b90600052602060002001604051806020016040529081600082018054600181600116156101000203166002900480601f0160208091040260200160405190810160405280929190818152602001828054600181600116156101000203166002900480156127b45780601f10612789576101008083540402835291602001916127b4565b820191906000526020600020905b81548152906001019060200180831161279757829003601f168201915b50505050508152505090506127c7612cc3565b600460008d73ffffffffffffffffffffffffffffffffffffffff1673ffffffffffffffffffffffffffffffffffffffff1681526020019081526020016000208b8154811061281157fe5b90600052602060002090600502016040518060a0016040529081600082018054600181600116156101000203166002900480601f0160208091040260200160405190810160405280929190818152602001828054600181600116156101000203166002900480156128c35780601f10612898576101008083540402835291602001916128c3565b820191906000526020600020905b8154815290600101906020018083116128a657829003601f168201915b505050505081526020016001820154815260200160028201548152602001600382015481526020016004820154815250509050806020015184600001518260400151856000015184606001518660000151849450829250809050995099509950995099509950505050509295509295509295565b6000600460008373ffffffffffffffffffffffffffffffffffffffff1673ffffffffffffffffffffffffffffffffffffffff168152602001908152602001600020805490509050919050565b8060018190555050565b60008054905090565b6060806060806129a4612e09565b600360008873ffffffffffffffffffffffffffffffffffffffff1673ffffffffffffffffffffffffffffffffffffffff16815260200190815260200160002086815481106129ee57fe5b9060005260206000209060040201604051806080016040529081600082018054600181600116156101000203166002900480601f016020809104026020016040519081016040528092919081815260200182805460018160011615610100020316600290048015612aa05780601f10612a7557610100808354040283529160200191612aa0565b820191906000526020600020905b815481529060010190602001808311612a8357829003601f168201915b50505050508152602001600182018054600181600116156101000203166002900480601f016020809104026020016040519081016040528092919081815260200182805460018160011615610100020316600290048015612b425780601f10612b1757610100808354040283529160200191612b42565b820191906000526020600020905b815481529060010190602001808311612b2557829003601f168201915b50505050508152602001600282018054600181600116156101000203166002900480601f016020809104026020016040519081016040528092919081815260200182805460018160011615610100020316600290048015612be45780601f10612bb957610100808354040283529160200191612be4565b820191906000526020600020905b815481529060010190602001808311612bc757829003601f168201915b50505050508152602001600382018054600181600116156101000203166002900480601f016020809104026020016040519081016040528092919081815260200182805460018160011615610100020316600290048015612c865780601f10612c5b57610100808354040283529160200191612c86565b820191906000526020600020905b815481529060010190602001808311612c6957829003601f168201915b5050505050815250509050806000015181602001518260400151836060015183935082925081915080905094509450945094505092959194509250565b6040518060a0016040528060608152602001600081526020016000815260200160008152602001600081525090565b828054600181600116156101000203166002900490600052602060002090601f016020900481019282601f10612d3357805160ff1916838001178555612d61565b82800160010185558215612d61579182015b82811115612d60578251825591602001919060010190612d45565b5b509050612d6e9190612e31565b5090565b6040518060e00160405280606081526020016060815260200160008152602001600081526020016000815260200160008152602001600081525090565b60405180606001604052806060815260200160608152602001606081525090565b6040518060200160405280606081525090565b6040518060200160405280606081525090565b6040518060200160405280606081525090565b6040518060800160405280606081526020016060815260200160608152602001606081525090565b612e5391905b80821115612e4f576000816000905550600101612e37565b5090565b9056fea265627a7a723158205f0e8545e33fbe9b70ff89cec721d31f03e38b7b14db0bf1324ca136fba13fe164736f6c63430005100032",
  "source": "pragma solidity >=0.4.22 <0.8.0;\n\n\ncontract Adddoc {\n\n    uint stucount;\n    uint admincount;\n\n    struct Studoc{\n        string docname;\n        string date;\n        string dochash;\n    }\n\n     struct UserInfo{\n        string FullName;\n        string EmailID;\n        string MobileNo;\n        string password;\n    }\n\n    struct Request{\n        string stuname;\n        uint bonafide;\n        uint scholor;\n        uint academics;\n        uint status;\n    }\n\n    struct Tick{\n        string stuname;\n        string appliedfor;\n        uint var0;\n        uint var1;\n        uint var2;\n        uint var3;\n        uint var4;\n    }\n\n   \n    struct Bonafidekastruct{\n        string bonafidekistring;\n    }\n\n    struct Scholorkastruct{\n        string scholorkistring;\n    }\n    struct Academicskastruct{\n        string academicskistring;\n    }\n\n    mapping(address => Studoc[]) Stumap;\n    mapping(address => UserInfo[]) UserMap;\n    mapping(address => Request[]) RequestMap;\n    mapping(address => Tick[]) Tickmap;\n\n    mapping(address => Bonafidekastruct[]) Bonamap;\n    mapping(address => Scholorkastruct[]) Scholmap;\n    mapping(address => Academicskastruct[]) Acamap;\n\n    function setStu(uint _memeHash) public {\n        stucount = _memeHash;\n    }\n\n    function getStu() public view returns (uint) {\n        return stucount;\n    }\n\n    function setAdmin(uint _memeHash) public {\n        admincount = _memeHash;\n    }\n\n    function getAdmin() public view returns (uint) {\n        return admincount;\n    }\n\n\n\n    function setTick(address UserAddress,string memory _stuname,string memory _appliedfor,uint _var0,uint _var1,uint _var2,uint _var3,uint _var4) public {\n        Tickmap[UserAddress].push(Tick(_stuname,_appliedfor,_var0,_var1,_var2,_var3,_var4));\n    }\n\n    function getTick(address UserAddress,uint index) view public returns(string memory,string memory,uint,uint,uint,uint,uint) {\n        Tick memory ThisTick=Tickmap[UserAddress][index];\n        return(ThisTick.stuname,ThisTick.appliedfor,ThisTick.var0,ThisTick.var1,ThisTick.var2,ThisTick.var3,ThisTick.var4);\n    }\n\n    function setstudoc(address UserAddress,string memory _docname,string memory _date,string memory _dochash) public {\n        Stumap[UserAddress].push(Studoc(_docname,_date,_dochash));\n    }\n\n    function getstudoc(address UserAddress,uint UserIndex) view public returns(string memory,string memory,string memory) {\n        Studoc memory ThisUser=Stumap[UserAddress][UserIndex];\n        return(ThisUser.docname,ThisUser.date,ThisUser.dochash);\n\n    }\n\n\n\n    function AddUser(address UserAddress,string memory FullName,string memory EmailID,string memory MobileNo,string memory Password) public\n    {\n        UserMap[UserAddress].push(UserInfo(FullName,EmailID,MobileNo,Password));\n    }\n\n    \n    function getUser(address ins,uint UserIndex) view public returns (string memory, string memory, string memory,string memory) {\n        UserInfo memory ThisUser=UserMap[ins][UserIndex];\n        return (ThisUser.FullName, ThisUser.EmailID, ThisUser.MobileNo,ThisUser.password);\n    }\n\n\n\n\n\n    function AddBonafidecertificate(address UserAddress,string memory _bonafide) public \n    {\n        Bonamap[UserAddress].push(Bonafidekastruct(_bonafide));\n    }\n\n     function AddScholorcertificate(address UserAddress,string memory _scholor) public \n    {\n        Scholmap[UserAddress].push(Scholorkastruct(_scholor));\n    }\n\n     function AddAcademicscertificate(address UserAddress,string memory _academics) public \n    {\n        Acamap[UserAddress].push(Academicskastruct(_academics));\n    }\n    \n    function viewDoc(address UserAddress,uint RequestIndex) public view returns(uint,string memory,uint,string memory,uint,string memory)\n    {\n        Bonafidekastruct memory ThisBona=Bonamap[UserAddress][0];\n        Scholorkastruct memory ThisSchol=Scholmap[UserAddress][0];\n        Academicskastruct memory ThisAca=Acamap[UserAddress][0];\n        Request memory ThisRequest=RequestMap[UserAddress][RequestIndex];\n        return (ThisRequest.bonafide,ThisBona.bonafidekistring,ThisRequest.scholor,ThisSchol.scholorkistring,ThisRequest.academics,ThisAca.academicskistring);\n    }\n\n    function viewDocLength(address UserAddress) view public returns(uint,uint)\n    {\n        return (Stumap[UserAddress].length,Tickmap[UserAddress].length);\n    }\n\n    \n\n    \n\n\n    function AddRequest(address UserAddress,string memory stuname,uint bonafide,uint scholor,uint academics,uint status) public\n    {\n        RequestMap[UserAddress].push(Request(stuname,bonafide,scholor,academics,status));\n    }\n    \n    function ViewRequestLength(address UserAddress) view public returns(uint)\n    {\n        return RequestMap[UserAddress].length;\n    }\n    \n    function ViewRequestHeader(address UserAddress, uint RequestIndex) view public returns(string memory stuname, uint status)\n    {\n        Request memory ThisRequest=RequestMap[UserAddress][RequestIndex];\n        return (ThisRequest.stuname, ThisRequest.status);\n    }\n\n    function ViewRequestDetail(address UserAddress, uint RequestIndex) view public returns(string memory stuname,uint bonafide,uint scholor,uint academics,uint status)\n    {\n        Request memory ThisRequest=RequestMap[UserAddress][RequestIndex];\n        return (ThisRequest.stuname, ThisRequest.bonafide, ThisRequest.scholor, ThisRequest.academics,ThisRequest.status);\n    }\n\n    function UpdateRequestStatus(address UserAddress, uint RequestIndex, uint bonafide,uint scholor,uint academics,uint status) public\n    {\n        RequestMap[UserAddress][RequestIndex].bonafide=bonafide;\n        RequestMap[UserAddress][RequestIndex].scholor=scholor;\n        RequestMap[UserAddress][RequestIndex].academics=academics;\n        RequestMap[UserAddress][RequestIndex].status=status;\n    }\n   \n}\n                                        \n",
  "sourcePath": "D:/Decentralised-App-main/src/contracts/Adddoc.sol",
  "compiler": {
    "name": "solc",
    "version": "0.5.16+commit.9c3226ce.Emscripten.clang"
  },
  "schemaVersion": "3.2.4",
  "updatedAt": "2021-01-02T13:59:06.150Z",
  "networkType": "ethereum",
  "devdoc": {
    "methods": {}
  },
  "userdoc": {
    "methods": {}
  }
}